{
  "_format": "hh-sol-artifact-1",
  "contractName": "Loyalty",
  "sourceName": "contracts/Loyalty.sol",
  "abi": [
    {
      "inputs": [],
      "stateMutability": "nonpayable",
      "type": "constructor"
    },
    {
      "anonymous": false,
      "inputs": [
        {
          "indexed": true,
          "internalType": "address",
          "name": "user",
          "type": "address"
        },
        {
          "indexed": false,
          "internalType": "uint256",
          "name": "amount",
          "type": "uint256"
        }
      ],
      "name": "PointsAwarded",
      "type": "event"
    },
    {
      "anonymous": false,
      "inputs": [
        {
          "indexed": true,
          "internalType": "address",
          "name": "user",
          "type": "address"
        },
        {
          "indexed": false,
          "internalType": "uint256",
          "name": "amount",
          "type": "uint256"
        },
        {
          "indexed": false,
          "internalType": "string",
          "name": "barcode",
          "type": "string"
        }
      ],
      "name": "PointsRedeemed",
      "type": "event"
    },
    {
      "inputs": [
        {
          "internalType": "address",
          "name": "user",
          "type": "address"
        },
        {
          "internalType": "uint256",
          "name": "amount",
          "type": "uint256"
        }
      ],
      "name": "awardPoints",
      "outputs": [],
      "stateMutability": "nonpayable",
      "type": "function"
    },
    {
      "inputs": [
        {
          "internalType": "address",
          "name": "user",
          "type": "address"
        }
      ],
      "name": "checkPoints",
      "outputs": [
        {
          "internalType": "uint256",
          "name": "",
          "type": "uint256"
        }
      ],
      "stateMutability": "view",
      "type": "function"
    },
    {
      "inputs": [],
      "name": "owner",
      "outputs": [
        {
          "internalType": "address",
          "name": "",
          "type": "address"
        }
      ],
      "stateMutability": "view",
      "type": "function"
    },
    {
      "inputs": [
        {
          "internalType": "address",
          "name": "",
          "type": "address"
        }
      ],
      "name": "points",
      "outputs": [
        {
          "internalType": "uint256",
          "name": "",
          "type": "uint256"
        }
      ],
      "stateMutability": "view",
      "type": "function"
    },
    {
      "inputs": [],
      "name": "redeemPoints",
      "outputs": [
        {
          "internalType": "string",
          "name": "",
          "type": "string"
        }
      ],
      "stateMutability": "nonpayable",
      "type": "function"
    }
  ],
  "bytecode": "0x608060405234801561001057600080fd5b5033600160006101000a81548173ffffffffffffffffffffffffffffffffffffffff021916908373ffffffffffffffffffffffffffffffffffffffff1602179055506110a1806100616000396000f3fe608060405234801561001057600080fd5b50600436106100575760003560e01c806334e0ee2e1461005c578063358b81661461008c5780638da5cb5b146100bc578063e8bec08f146100da578063eba2463f146100f6575b600080fd5b61007660048036038101906100719190610810565b610114565b6040516100839190610856565b60405180910390f35b6100a660048036038101906100a19190610810565b61015c565b6040516100b39190610856565b60405180910390f35b6100c4610174565b6040516100d19190610880565b60405180910390f35b6100f460048036038101906100ef91906108c7565b61019a565b005b6100fe6102d1565b60405161010b9190610997565b60405180910390f35b60008060008373ffffffffffffffffffffffffffffffffffffffff1673ffffffffffffffffffffffffffffffffffffffff168152602001908152602001600020549050919050565b60006020528060005260406000206000915090505481565b600160009054906101000a900473ffffffffffffffffffffffffffffffffffffffff1681565b600160009054906101000a900473ffffffffffffffffffffffffffffffffffffffff1673ffffffffffffffffffffffffffffffffffffffff163373ffffffffffffffffffffffffffffffffffffffff161461022a576040517f08c379a000000000000000000000000000000000000000000000000000000000815260040161022190610a05565b60405180910390fd5b806000808473ffffffffffffffffffffffffffffffffffffffff1673ffffffffffffffffffffffffffffffffffffffff16815260200190815260200160002060008282546102789190610a54565b925050819055508173ffffffffffffffffffffffffffffffffffffffff167f900825d4808e50002c1a3614c809eb06d2d7142338f0dec06ed9a4057c8a8c99826040516102c59190610856565b60405180910390a25050565b606060008060003373ffffffffffffffffffffffffffffffffffffffff1673ffffffffffffffffffffffffffffffffffffffff16815260200190815260200160002054905060008111610359576040517f08c379a000000000000000000000000000000000000000000000000000000000815260040161035090610ad4565b60405180910390fd5b60008060003373ffffffffffffffffffffffffffffffffffffffff1673ffffffffffffffffffffffffffffffffffffffff1681526020019081526020016000208190555060006103a93383610403565b90503373ffffffffffffffffffffffffffffffffffffffff167fda49bb5bf412718988a26709b7c8c5385b0af3ae2570f06613f372c2d401faf283836040516103f3929190610af4565b60405180910390a2809250505090565b606061040e8361043f565b61041783610602565b604051602001610428929190610bf8565b604051602081830303815290604052905092915050565b60606000602867ffffffffffffffff81111561045e5761045d610c32565b5b6040519080825280601f01601f1916602001820160405280156104905781602001600182028036833780820191505090505b50905060005b60148110156105f85760008160136104ae9190610c61565b60086104ba9190610c95565b60026104c69190610e0a565b8573ffffffffffffffffffffffffffffffffffffffff166104e79190610e84565b60f81b9050600060108260f81c6104fe9190610ec2565b60f81b905060008160f81c60106105159190610ef3565b8360f81c6105239190610f30565b60f81b905061053182610767565b8585600261053f9190610c95565b815181106105505761054f610f65565b5b60200101907effffffffffffffffffffffffffffffffffffffffffffffffffffffffffffff1916908160001a90535061058881610767565b8560018660026105989190610c95565b6105a29190610a54565b815181106105b3576105b2610f65565b5b60200101907effffffffffffffffffffffffffffffffffffffffffffffffffffffffffffff1916908160001a90535050505080806105f090610f94565b915050610496565b5080915050919050565b606060008203610649576040518060400160405280600181526020017f30000000000000000000000000000000000000000000000000000000000000008152509050610762565b600082905060005b6000821461067b57808061066490610f94565b915050600a826106749190610e84565b9150610651565b60008167ffffffffffffffff81111561069757610696610c32565b5b6040519080825280601f01601f1916602001820160405280156106c95781602001600182028036833780820191505090505b50905060008290505b6000861461075a5780806106e590610fdc565b915050600a866106f59190611005565b60306107019190610a54565b60f81b82828151811061071757610716610f65565b5b60200101907effffffffffffffffffffffffffffffffffffffffffffffffffffffffffffff1916908160001a905350600a866107539190610e84565b95506106d2565b819450505050505b919050565b6000600a8260f81c60ff1610156107925760308260f81c6107889190611036565b60f81b90506107a8565b60578260f81c6107a29190611036565b60f81b90505b919050565b600080fd5b600073ffffffffffffffffffffffffffffffffffffffff82169050919050565b60006107dd826107b2565b9050919050565b6107ed816107d2565b81146107f857600080fd5b50565b60008135905061080a816107e4565b92915050565b600060208284031215610826576108256107ad565b5b6000610834848285016107fb565b91505092915050565b6000819050919050565b6108508161083d565b82525050565b600060208201905061086b6000830184610847565b92915050565b61087a816107d2565b82525050565b60006020820190506108956000830184610871565b92915050565b6108a48161083d565b81146108af57600080fd5b50565b6000813590506108c18161089b565b92915050565b600080604083850312156108de576108dd6107ad565b5b60006108ec858286016107fb565b92505060206108fd858286016108b2565b9150509250929050565b600081519050919050565b600082825260208201905092915050565b60005b83811015610941578082015181840152602081019050610926565b60008484015250505050565b6000601f19601f8301169050919050565b600061096982610907565b6109738185610912565b9350610983818560208601610923565b61098c8161094d565b840191505092915050565b600060208201905081810360008301526109b1818461095e565b905092915050565b7f4e6f74206f776e65720000000000000000000000000000000000000000000000600082015250565b60006109ef600983610912565b91506109fa826109b9565b602082019050919050565b60006020820190508181036000830152610a1e816109e2565b9050919050565b7f4e487b7100000000000000000000000000000000000000000000000000000000600052601160045260246000fd5b6000610a5f8261083d565b9150610a6a8361083d565b9250828201905080821115610a8257610a81610a25565b5b92915050565b7f4e6f20706f696e747320746f2072656465656d00000000000000000000000000600082015250565b6000610abe601383610912565b9150610ac982610a88565b602082019050919050565b60006020820190508181036000830152610aed81610ab1565b9050919050565b6000604082019050610b096000830185610847565b8181036020830152610b1b818461095e565b90509392505050565b600081905092915050565b7f4241522d00000000000000000000000000000000000000000000000000000000600082015250565b6000610b65600483610b24565b9150610b7082610b2f565b600482019050919050565b6000610b8682610907565b610b908185610b24565b9350610ba0818560208601610923565b80840191505092915050565b7f2d00000000000000000000000000000000000000000000000000000000000000600082015250565b6000610be2600183610b24565b9150610bed82610bac565b600182019050919050565b6000610c0382610b58565b9150610c0f8285610b7b565b9150610c1a82610bd5565b9150610c268284610b7b565b91508190509392505050565b7f4e487b7100000000000000000000000000000000000000000000000000000000600052604160045260246000fd5b6000610c6c8261083d565b9150610c778361083d565b9250828203905081811115610c8f57610c8e610a25565b5b92915050565b6000610ca08261083d565b9150610cab8361083d565b9250828202610cb98161083d565b91508282048414831517610cd057610ccf610a25565b5b5092915050565b60008160011c9050919050565b6000808291508390505b6001851115610d2e57808604811115610d0a57610d09610a25565b5b6001851615610d195780820291505b8081029050610d2785610cd7565b9450610cee565b94509492505050565b600082610d475760019050610e03565b81610d555760009050610e03565b8160018114610d6b5760028114610d7557610da4565b6001915050610e03565b60ff841115610d8757610d86610a25565b5b8360020a915084821115610d9e57610d9d610a25565b5b50610e03565b5060208310610133831016604e8410600b8410161715610dd95782820a905083811115610dd457610dd3610a25565b5b610e03565b610de68484846001610ce4565b92509050818404811115610dfd57610dfc610a25565b5b81810290505b9392505050565b6000610e158261083d565b9150610e208361083d565b9250610e4d7fffffffffffffffffffffffffffffffffffffffffffffffffffffffffffffffff8484610d37565b905092915050565b7f4e487b7100000000000000000000000000000000000000000000000000000000600052601260045260246000fd5b6000610e8f8261083d565b9150610e9a8361083d565b925082610eaa57610ea9610e55565b5b828204905092915050565b600060ff82169050919050565b6000610ecd82610eb5565b9150610ed883610eb5565b925082610ee857610ee7610e55565b5b828204905092915050565b6000610efe82610eb5565b9150610f0983610eb5565b9250828202610f1781610eb5565b9150808214610f2957610f28610a25565b5b5092915050565b6000610f3b82610eb5565b9150610f4683610eb5565b9250828203905060ff811115610f5f57610f5e610a25565b5b92915050565b7f4e487b7100000000000000000000000000000000000000000000000000000000600052603260045260246000fd5b6000610f9f8261083d565b91507fffffffffffffffffffffffffffffffffffffffffffffffffffffffffffffffff8203610fd157610fd0610a25565b5b600182019050919050565b6000610fe78261083d565b915060008203610ffa57610ff9610a25565b5b600182039050919050565b60006110108261083d565b915061101b8361083d565b92508261102b5761102a610e55565b5b828206905092915050565b600061104182610eb5565b915061104c83610eb5565b9250828201905060ff81111561106557611064610a25565b5b9291505056fea2646970667358221220ef88cb4867165f72452c18532d9dffa87cde6251f937f7f6a5b4a18e3005efad64736f6c63430008140033",
  "linkReferences": {},
  "deployedLinkReferences": {}
}