{
  "_format": "hh-sol-artifact-1",
  "contractName": "Loyalty",
  "sourceName": "contracts/Loyalty.sol",
  "abi": [
    {
      "inputs": [],
      "stateMutability": "nonpayable",
      "type": "constructor"
    },
    {
      "anonymous": false,
      "inputs": [
        {
          "indexed": true,
          "internalType": "string",
          "name": "userId",
          "type": "string"
        },
        {
          "indexed": false,
          "internalType": "uint256",
          "name": "amount",
          "type": "uint256"
        }
      ],
      "name": "PointsAwarded",
      "type": "event"
    },
    {
      "anonymous": false,
      "inputs": [
        {
          "indexed": true,
          "internalType": "string",
          "name": "userId",
          "type": "string"
        },
        {
          "indexed": false,
          "internalType": "uint256",
          "name": "amount",
          "type": "uint256"
        },
        {
          "indexed": false,
          "internalType": "string",
          "name": "barcode",
          "type": "string"
        }
      ],
      "name": "PointsRedeemed",
      "type": "event"
    },
    {
      "inputs": [
        {
          "internalType": "string",
          "name": "userId",
          "type": "string"
        },
        {
          "internalType": "uint256",
          "name": "amount",
          "type": "uint256"
        }
      ],
      "name": "awardPoints",
      "outputs": [],
      "stateMutability": "nonpayable",
      "type": "function"
    },
    {
      "inputs": [
        {
          "internalType": "string",
          "name": "userId",
          "type": "string"
        }
      ],
      "name": "checkPoints",
      "outputs": [
        {
          "internalType": "uint256",
          "name": "",
          "type": "uint256"
        }
      ],
      "stateMutability": "view",
      "type": "function"
    },
    {
      "inputs": [],
      "name": "owner",
      "outputs": [
        {
          "internalType": "address",
          "name": "",
          "type": "address"
        }
      ],
      "stateMutability": "view",
      "type": "function"
    },
    {
      "inputs": [
        {
          "internalType": "string",
          "name": "",
          "type": "string"
        }
      ],
      "name": "points",
      "outputs": [
        {
          "internalType": "uint256",
          "name": "",
          "type": "uint256"
        }
      ],
      "stateMutability": "view",
      "type": "function"
    },
    {
      "inputs": [
        {
          "internalType": "string",
          "name": "userId",
          "type": "string"
        }
      ],
      "name": "redeemPoints",
      "outputs": [
        {
          "internalType": "string",
          "name": "",
          "type": "string"
        }
      ],
      "stateMutability": "nonpayable",
      "type": "function"
    },
    {
      "inputs": [
        {
          "internalType": "string",
          "name": "userId",
          "type": "string"
        }
      ],
      "name": "userExists",
      "outputs": [
        {
          "internalType": "bool",
          "name": "",
          "type": "bool"
        }
      ],
      "stateMutability": "view",
      "type": "function"
    }
  ],
  "bytecode": "0x608060405234801561001057600080fd5b5033600160006101000a81548173ffffffffffffffffffffffffffffffffffffffff021916908373ffffffffffffffffffffffffffffffffffffffff160217905550610dbf806100616000396000f3fe608060405234801561001057600080fd5b50600436106100625760003560e01c80633d250b89146100675780633e599092146100835780634673a207146100b35780638da5cb5b146100e3578063ba013bfd14610101578063fddc968e14610131575b600080fd5b610081600480360381019061007c91906107c6565b610161565b005b61009d60048036038101906100989190610822565b610277565b6040516100aa919061087a565b60405180910390f35b6100cd60048036038101906100c89190610822565b6102a5565b6040516100da919061087a565b60405180910390f35b6100eb6102cc565b6040516100f891906108d6565b60405180910390f35b61011b60048036038101906101169190610822565b6102f2565b6040516101289190610970565b60405180910390f35b61014b60048036038101906101469190610822565b610473565b60405161015891906109ad565b60405180910390f35b600160009054906101000a900473ffffffffffffffffffffffffffffffffffffffff1673ffffffffffffffffffffffffffffffffffffffff163373ffffffffffffffffffffffffffffffffffffffff16146101f1576040517f08c379a00000000000000000000000000000000000000000000000000000000081526004016101e890610a14565b60405180910390fd5b806000836040516102029190610a70565b9081526020016040518091039020600082825461021f9190610ab6565b92505081905550816040516102349190610a70565b60405180910390207f1bfe6c46607125d6fce6bf5512229aeb05b5012977356424778c4b4edbbe2b438260405161026b919061087a565b60405180910390a25050565b6000818051602081018201805184825260208301602085012081835280955050505050506000915090505481565b600080826040516102b69190610a70565b9081526020016040518091039020549050919050565b600160009054906101000a900473ffffffffffffffffffffffffffffffffffffffff1681565b6060600160009054906101000a900473ffffffffffffffffffffffffffffffffffffffff1673ffffffffffffffffffffffffffffffffffffffff163373ffffffffffffffffffffffffffffffffffffffff1614610384576040517f08c379a000000000000000000000000000000000000000000000000000000000815260040161037b90610a14565b60405180910390fd5b600080836040516103959190610a70565b9081526020016040518091039020549050600081116103e9576040517f08c379a00000000000000000000000000000000000000000000000000000000081526004016103e090610b36565b60405180910390fd5b600080846040516103fa9190610a70565b9081526020016040518091039020819055506000610418848361049d565b9050836040516104289190610a70565b60405180910390207f5e083c9c23f04da65720f1fcf380a196105835663a498d5fbec1c9bf3c5c8fd58383604051610461929190610b56565b60405180910390a28092505050919050565b6000806000836040516104869190610a70565b908152602001604051809103902054119050919050565b6060826104a9836104d1565b6040516020016104ba929190610c1e565b604051602081830303815290604052905092915050565b606060008203610518576040518060400160405280600181526020017f30000000000000000000000000000000000000000000000000000000000000008152509050610631565b600082905060005b6000821461054a57808061053390610c58565b915050600a826105439190610ccf565b9150610520565b60008167ffffffffffffffff81111561056657610565610665565b5b6040519080825280601f01601f1916602001820160405280156105985781602001600182028036833780820191505090505b50905060008290505b600086146106295780806105b490610d00565b915050600a866105c49190610d29565b60306105d09190610ab6565b60f81b8282815181106105e6576105e5610d5a565b5b60200101907effffffffffffffffffffffffffffffffffffffffffffffffffffffffffffff1916908160001a905350600a866106229190610ccf565b95506105a1565b819450505050505b919050565b6000604051905090565b600080fd5b600080fd5b600080fd5b600080fd5b6000601f19601f8301169050919050565b7f4e487b7100000000000000000000000000000000000000000000000000000000600052604160045260246000fd5b61069d82610654565b810181811067ffffffffffffffff821117156106bc576106bb610665565b5b80604052505050565b60006106cf610636565b90506106db8282610694565b919050565b600067ffffffffffffffff8211156106fb576106fa610665565b5b61070482610654565b9050602081019050919050565b82818337600083830152505050565b600061073361072e846106e0565b6106c5565b90508281526020810184848401111561074f5761074e61064f565b5b61075a848285610711565b509392505050565b600082601f8301126107775761077661064a565b5b8135610787848260208601610720565b91505092915050565b6000819050919050565b6107a381610790565b81146107ae57600080fd5b50565b6000813590506107c08161079a565b92915050565b600080604083850312156107dd576107dc610640565b5b600083013567ffffffffffffffff8111156107fb576107fa610645565b5b61080785828601610762565b9250506020610818858286016107b1565b9150509250929050565b60006020828403121561083857610837610640565b5b600082013567ffffffffffffffff81111561085657610855610645565b5b61086284828501610762565b91505092915050565b61087481610790565b82525050565b600060208201905061088f600083018461086b565b92915050565b600073ffffffffffffffffffffffffffffffffffffffff82169050919050565b60006108c082610895565b9050919050565b6108d0816108b5565b82525050565b60006020820190506108eb60008301846108c7565b92915050565b600081519050919050565b600082825260208201905092915050565b60005b8381101561092b578082015181840152602081019050610910565b60008484015250505050565b6000610942826108f1565b61094c81856108fc565b935061095c81856020860161090d565b61096581610654565b840191505092915050565b6000602082019050818103600083015261098a8184610937565b905092915050565b60008115159050919050565b6109a781610992565b82525050565b60006020820190506109c2600083018461099e565b92915050565b7f4e6f74206f776e65720000000000000000000000000000000000000000000000600082015250565b60006109fe6009836108fc565b9150610a09826109c8565b602082019050919050565b60006020820190508181036000830152610a2d816109f1565b9050919050565b600081905092915050565b6000610a4a826108f1565b610a548185610a34565b9350610a6481856020860161090d565b80840191505092915050565b6000610a7c8284610a3f565b915081905092915050565b7f4e487b7100000000000000000000000000000000000000000000000000000000600052601160045260246000fd5b6000610ac182610790565b9150610acc83610790565b9250828201905080821115610ae457610ae3610a87565b5b92915050565b7f4e6f20706f696e747320746f2072656465656d00000000000000000000000000600082015250565b6000610b206013836108fc565b9150610b2b82610aea565b602082019050919050565b60006020820190508181036000830152610b4f81610b13565b9050919050565b6000604082019050610b6b600083018561086b565b8181036020830152610b7d8184610937565b90509392505050565b7f4241522d00000000000000000000000000000000000000000000000000000000600082015250565b6000610bbc600483610a34565b9150610bc782610b86565b600482019050919050565b7f2d00000000000000000000000000000000000000000000000000000000000000600082015250565b6000610c08600183610a34565b9150610c1382610bd2565b600182019050919050565b6000610c2982610baf565b9150610c358285610a3f565b9150610c4082610bfb565b9150610c4c8284610a3f565b91508190509392505050565b6000610c6382610790565b91507fffffffffffffffffffffffffffffffffffffffffffffffffffffffffffffffff8203610c9557610c94610a87565b5b600182019050919050565b7f4e487b7100000000000000000000000000000000000000000000000000000000600052601260045260246000fd5b6000610cda82610790565b9150610ce583610790565b925082610cf557610cf4610ca0565b5b828204905092915050565b6000610d0b82610790565b915060008203610d1e57610d1d610a87565b5b600182039050919050565b6000610d3482610790565b9150610d3f83610790565b925082610d4f57610d4e610ca0565b5b828206905092915050565b7f4e487b7100000000000000000000000000000000000000000000000000000000600052603260045260246000fdfea2646970667358221220038262f069631b465f8106101d37c32ab2e74d276ef1023c4b9757e68ff38c2f64736f6c63430008140033",
  "linkReferences": {},
  "deployedLinkReferences": {}
}